:100000000C942A000C9447000C9447000C94470071
:100010000C9447000C9447000C9447000C94470044
:100020000C9447000C9447000C9447000C94470034
:100030000C9447000C9447000C9447000C94470024
:100040000C9447000C9447000C9447000C94470014
:100050000C94470011241FBECFE5D4E0DEBFCDBF16
:1000600010E0A0E6B0E0EAE1F8E002C005900D92F1
:10007000AA39B107D9F710E0AAE9B0E001C01D9292
:10008000A83DB107E1F70E94A1000C940B040C9469
:10009000000081E081B984E080B90895982FFA01C9
:1000A00084EA86BF06B607FEFDCF81B1887F88301F
:1000B00099F4892F880F83B984E886BF06B607FEB6
:1000C000FDCF81B1887F883139F463B984E886BF78
:1000D00006B607FEFDCF81B184EA86BF06B607FEED
:1000E000FDCF81B1887F8031A9F4990F916093B9D8
:1000F00084E886BF06B607FEFDCF81B1887F8034D5
:1001000049F484E886BF06B607FEFDCF83B180833D
:1001100090E001C091E084E986BF892F089582B301
:1001200091E0892782BB82B3892782BB82B389276A
:1001300082BB82B391E1892782BB82B3892782BBCC
:1001400008952F923F924F925F926F927F928F927B
:100150009F92AF92BF92CF92DF92EF92FF920F9356
:100160001F93CF93DF9380E181BB11B880E380B907
:1001700068EF262E312C57E0A52EB12CC12CD12CA6
:1001800041E0842E912C32EE632E34E0732E23EC6A
:10019000422E29E0522E16EA94EAE92E02E0C9EF37
:1001A000D0E083E0F82E3BC0C1010197F1F78091C8
:1001B000920090919300A0919400B0919500181630
:1001C00019061A061B0664F40197A109B109809368
:1001D000920090939300A0939400B09395001FC059
:1001E000A0929200B0929300C0929400D092950099
:1001F00080919600909197000E948F0080919600C8
:10020000909197008C30910534F40196909397006B
:100210008093960004C090929700809296008499F3
:1002200007C08091A6009091A700892B09F4BCCF4C
:100230008AEF90E00197F1F71092A7001092A600C4
:100240001092A9001092A8001092AB001092AA0080
:10025000A0929200B0929300C0929400D092950028
:10026000909297008092960086EA9EE00197F1F7BF
:1002700021E030E082B391E0892782BBC30101977E
:10028000F1F72F5F3F4F24363105A1F788EA91E659
:100290000197F1F720E030E0F901E658FF4F608167
:1002A0007181F901EE59FF4F0190F081E02D40E09E
:1002B00050E0862F81709E2F917075956795F5950A
:1002C000E795813009F073C0913009F0ECC082B33A
:1002D0008F2582BB812F8A95F1F782B3802782BB5D
:1002E000812F8A95F1F782B3892782BB812F8A9566
:1002F000F1F782B382BB812F8A95F1F782B38F2504
:1003000082BB812F8A95F1F782B3802782BB812F30
:100310008A95F1F782B3892782BB812F8A95F1F7FD
:1003200082B382BB812F8A95F1F782B38F2582BB7E
:10033000812F8A95F1F782B3802782BB812F8A951E
:10034000F1F782B3892782BB812F8A95F1F782B3B7
:1003500082BB812F8A95F1F782B38F2582BB812FD3
:100360008A95F1F782B3802782BB812F8A95F1F7B6
:1003700082B3892782BB812F8A95F1F782B382BB32
:10038000812F8A95F1F782B38F2582BB812F8A95C1
:10039000F1F782B3802782BB812F8A95F1F782B370
:1003A000892782BB812F8A95F1F782B377C091307C
:1003B00009F0B4C082B3892782BB812F8A95F1F7F7
:1003C00082B3892782BB812F8A95F1F782B389276F
:1003D00082BB812F8A95F1F782B3892782BB812F57
:1003E0008A95F1F782B3892782BB812F8A95F1F72D
:1003F00082B3892782BB812F8A95F1F782B389273F
:1004000082BB812F8A95F1F782B3892782BB812F26
:100410008A95F1F782B3892782BB812F8A95F1F7FC
:1004200082B3892782BB812F8A95F1F782B389270E
:1004300082BB812F8A95F1F782B3892782BB812FF6
:100440008A95F1F782B3892782BB812F8A95F1F7CC
:1004500082B3892782BB812F8A95F1F782B38927DE
:1004600082BB812F8A95F1F782B3892782BB812FC6
:100470008A95F1F782B3892782BB812F8A95F1F79C
:1004800082B3892782BB812F8A95F1F782B38927AE
:1004900082BB812F8A95F1F782B3892782BB8E2D8B
:1004A0008A95F1F740C082B3802782BBCE010197C5
:1004B000F1F782B3802782BBCE010197F1F782B3B7
:1004C000802782BBCE010197F1F782B3802782BBE0
:1004D000CE010197F1F782B3802782BBCE0101974D
:1004E000F1F782B3802782BBCE010197F1F782B387
:1004F000802782BBCE010197F1F782B3802782BBB0
:10050000CE010197F1F782B3802782BBCE0101971C
:10051000F1F782B3802782BBCE0103C082B382BBD6
:10052000C2010197F1F74F5F5F4F4031510509F06C
:10053000C0CE2E5F3F4F2831310509F0ADCE20E00F
:1005400030E0F901EE59FF4F60817181F901E65801
:10055000FF4F0190F081E02D40E050E0862F817048
:100560009E2F917075956795F595E795813009F007
:1005700073C0913009F0ECC082B38F2582BB812F0C
:100580008A95F1F782B3802782BB812F8A95F1F794
:1005900082B3892782BB812F8A95F1F782B382BB10
:1005A000812F8A95F1F782B38F2582BB812F8A959F
:1005B000F1F782B3802782BB812F8A95F1F782B34E
:1005C000892782BB812F8A95F1F782B382BB812F65
:1005D0008A95F1F782B38F2582BB812F8A95F1F737
:1005E00082B3802782BB812F8A95F1F782B3892756
:1005F00082BB812F8A95F1F782B382BB812F8A95C6
:10060000F1F782B38F2582BB812F8A95F1F782B3F0
:10061000802782BB812F8A95F1F782B3892782BB1D
:10062000812F8A95F1F782B382BB812F8A95F1F7EA
:1006300082B38F2582BB812F8A95F1F782B3802701
:1006400082BB812F8A95F1F782B3892782BB812FE4
:100650008A95F1F782B377C0913009F0B4C082B3C4
:10066000892782BB812F8A95F1F782B3892782BBC4
:10067000812F8A95F1F782B3892782BB812F8A95D2
:10068000F1F782B3892782BB812F8A95F1F782B374
:10069000892782BB812F8A95F1F782B3892782BB94
:1006A000812F8A95F1F782B3892782BB812F8A95A2
:1006B000F1F782B3892782BB812F8A95F1F782B344
:1006C000892782BB812F8A95F1F782B3892782BB64
:1006D000812F8A95F1F782B3892782BB812F8A9572
:1006E000F1F782B3892782BB812F8A95F1F782B314
:1006F000892782BB812F8A95F1F782B3892782BB34
:10070000812F8A95F1F782B3892782BB812F8A9541
:10071000F1F782B3892782BB812F8A95F1F782B3E3
:10072000892782BB812F8A95F1F782B3892782BB03
:10073000812F8A95F1F782B3892782BB812F8A9511
:10074000F1F782B3892782BB8E2D8A95F1F740C0DD
:1007500082B3802782BBCE010197F1F782B3802755
:1007600082BBCE010197F1F782B3802782BBCE0115
:100770000197F1F782B3802782BBCE010197F1F791
:1007800082B3802782BBCE010197F1F782B3802725
:1007900082BBCE010197F1F782B3802782BBCE01E5
:1007A0000197F1F782B3802782BBCE010197F1F761
:1007B00082B3802782BBCE010197F1F782B38027F5
:1007C00082BBCE0103C082B382BBC2010197F1F7A5
:1007D0004F5F5F4F4031510509F0C0CE2E5F3F4F54
:1007E0002831310509F0ADCE21E030E082B391E04F
:1007F000892782BBC3010197F1F72F5F3F4F243652
:100800003105A1F70CCD82B391E1892782BB82B378
:0A081000892782BB0895F894FFCFFA
:10081A00D1040200010017000C0000005800170064
:10082A000000070018003F000C0003000400250028
:10083A0022006300000000002200180007003100B7
:0A084A004C0007000000010001004F
:00000001FF
